{
  "_format": "hh-sol-artifact-1",
  "contractName": "LiquidityPool",
  "sourceName": "contracts/LiquidityPool.sol",
  "abi": [
    {
      "inputs": [
        {
          "internalType": "address",
          "name": "_alphaToken",
          "type": "address"
        },
        {
          "internalType": "address",
          "name": "_betaToken",
          "type": "address"
        }
      ],
      "stateMutability": "nonpayable",
      "type": "constructor"
    },
    {
      "inputs": [
        {
          "internalType": "uint256",
          "name": "_amountA",
          "type": "uint256"
        },
        {
          "internalType": "uint256",
          "name": "_amountB",
          "type": "uint256"
        }
      ],
      "name": "addLiquidity",
      "outputs": [],
      "stateMutability": "nonpayable",
      "type": "function"
    },
    {
      "inputs": [],
      "name": "alphaToken",
      "outputs": [
        {
          "internalType": "contract IERC20",
          "name": "",
          "type": "address"
        }
      ],
      "stateMutability": "view",
      "type": "function"
    },
    {
      "inputs": [],
      "name": "betaToken",
      "outputs": [
        {
          "internalType": "contract IERC20",
          "name": "",
          "type": "address"
        }
      ],
      "stateMutability": "view",
      "type": "function"
    },
    {
      "inputs": [
        {
          "internalType": "uint256",
          "name": "_amountA",
          "type": "uint256"
        },
        {
          "internalType": "uint256",
          "name": "_amountB",
          "type": "uint256"
        }
      ],
      "name": "removeLiquidity",
      "outputs": [],
      "stateMutability": "nonpayable",
      "type": "function"
    },
    {
      "inputs": [],
      "name": "reserveA",
      "outputs": [
        {
          "internalType": "uint256",
          "name": "",
          "type": "uint256"
        }
      ],
      "stateMutability": "view",
      "type": "function"
    },
    {
      "inputs": [],
      "name": "reserveB",
      "outputs": [
        {
          "internalType": "uint256",
          "name": "",
          "type": "uint256"
        }
      ],
      "stateMutability": "view",
      "type": "function"
    },
    {
      "inputs": [
        {
          "internalType": "uint256",
          "name": "_amountA",
          "type": "uint256"
        }
      ],
      "name": "swap",
      "outputs": [],
      "stateMutability": "nonpayable",
      "type": "function"
    }
  ],
  "bytecode": "0x60806040523480156200001157600080fd5b5060405162000f2c38038062000f2c83398181016040528101906200003791906200012a565b816000806101000a81548173ffffffffffffffffffffffffffffffffffffffff021916908373ffffffffffffffffffffffffffffffffffffffff16021790555080600160006101000a81548173ffffffffffffffffffffffffffffffffffffffff021916908373ffffffffffffffffffffffffffffffffffffffff160217905550505062000171565b600080fd5b600073ffffffffffffffffffffffffffffffffffffffff82169050919050565b6000620000f282620000c5565b9050919050565b6200010481620000e5565b81146200011057600080fd5b50565b6000815190506200012481620000f9565b92915050565b60008060408385031215620001445762000143620000c0565b5b6000620001548582860162000113565b9250506020620001678582860162000113565b9150509250929050565b610dab80620001816000396000f3fe608060405234801561001057600080fd5b506004361061007d5760003560e01c806394b918de1161005b57806394b918de146100dc5780639cd441da146100f85780639d7de6b314610114578063dc5fa6c5146101305761007d565b806311aa9aff1461008257806319e36f3b146100a057806370b4c9e0146100be575b600080fd5b61008a61014e565b60405161009791906108a8565b60405180910390f35b6100a8610174565b6040516100b591906108dc565b60405180910390f35b6100c661017a565b6040516100d391906108a8565b60405180910390f35b6100f660048036038101906100f19190610928565b61019e565b005b610112600480360381019061010d9190610955565b6103b1565b005b61012e60048036038101906101299190610955565b6105a7565b005b610138610823565b60405161014591906108dc565b60405180910390f35b600160009054906101000a900473ffffffffffffffffffffffffffffffffffffffff1681565b60035481565b60008054906101000a900473ffffffffffffffffffffffffffffffffffffffff1681565b60008054906101000a900473ffffffffffffffffffffffffffffffffffffffff1673ffffffffffffffffffffffffffffffffffffffff166323b872dd3330846040518463ffffffff1660e01b81526004016101fb939291906109b6565b6020604051808303816000875af115801561021a573d6000803e3d6000fd5b505050506040513d601f19601f8201168201806040525081019061023e9190610a25565b61027d576040517f08c379a000000000000000000000000000000000000000000000000000000000815260040161027490610aaf565b60405180910390fd5b6000600254600354836102909190610afe565b61029a9190610b6f565b9050600160009054906101000a900473ffffffffffffffffffffffffffffffffffffffff1673ffffffffffffffffffffffffffffffffffffffff1663a9059cbb33836040518363ffffffff1660e01b81526004016102f9929190610ba0565b6020604051808303816000875af1158015610318573d6000803e3d6000fd5b505050506040513d601f19601f8201168201806040525081019061033c9190610a25565b61037b576040517f08c379a000000000000000000000000000000000000000000000000000000000815260040161037290610c15565b60405180910390fd5b816002600082825461038d9190610c35565b9250508190555080600360008282546103a69190610c69565b925050819055505050565b60008054906101000a900473ffffffffffffffffffffffffffffffffffffffff1673ffffffffffffffffffffffffffffffffffffffff166323b872dd3330856040518463ffffffff1660e01b815260040161040e939291906109b6565b6020604051808303816000875af115801561042d573d6000803e3d6000fd5b505050506040513d601f19601f820116820180604052508101906104519190610a25565b610490576040517f08c379a000000000000000000000000000000000000000000000000000000000815260040161048790610aaf565b60405180910390fd5b600160009054906101000a900473ffffffffffffffffffffffffffffffffffffffff1673ffffffffffffffffffffffffffffffffffffffff166323b872dd3330846040518463ffffffff1660e01b81526004016104ef939291906109b6565b6020604051808303816000875af115801561050e573d6000803e3d6000fd5b505050506040513d601f19601f820116820180604052508101906105329190610a25565b610571576040517f08c379a000000000000000000000000000000000000000000000000000000000815260040161056890610c15565b60405180910390fd5b81600260008282546105839190610c35565b92505081905550806003600082825461059c9190610c35565b925050819055505050565b8160025410156105ec576040517f08c379a00000000000000000000000000000000000000000000000000000000081526004016105e390610ce9565b60405180910390fd5b806003541015610631576040517f08c379a000000000000000000000000000000000000000000000000000000000815260040161062890610d55565b60405180910390fd5b81600260008282546106439190610c69565b92505081905550806003600082825461065c9190610c69565b9250508190555060008054906101000a900473ffffffffffffffffffffffffffffffffffffffff1673ffffffffffffffffffffffffffffffffffffffff1663a9059cbb33846040518363ffffffff1660e01b81526004016106be929190610ba0565b6020604051808303816000875af11580156106dd573d6000803e3d6000fd5b505050506040513d601f19601f820116820180604052508101906107019190610a25565b610740576040517f08c379a000000000000000000000000000000000000000000000000000000000815260040161073790610aaf565b60405180910390fd5b600160009054906101000a900473ffffffffffffffffffffffffffffffffffffffff1673ffffffffffffffffffffffffffffffffffffffff1663a9059cbb33836040518363ffffffff1660e01b815260040161079d929190610ba0565b6020604051808303816000875af11580156107bc573d6000803e3d6000fd5b505050506040513d601f19601f820116820180604052508101906107e09190610a25565b61081f576040517f08c379a000000000000000000000000000000000000000000000000000000000815260040161081690610c15565b60405180910390fd5b5050565b60025481565b600073ffffffffffffffffffffffffffffffffffffffff82169050919050565b6000819050919050565b600061086e61086961086484610829565b610849565b610829565b9050919050565b600061088082610853565b9050919050565b600061089282610875565b9050919050565b6108a281610887565b82525050565b60006020820190506108bd6000830184610899565b92915050565b6000819050919050565b6108d6816108c3565b82525050565b60006020820190506108f160008301846108cd565b92915050565b600080fd5b610905816108c3565b811461091057600080fd5b50565b600081359050610922816108fc565b92915050565b60006020828403121561093e5761093d6108f7565b5b600061094c84828501610913565b91505092915050565b6000806040838503121561096c5761096b6108f7565b5b600061097a85828601610913565b925050602061098b85828601610913565b9150509250929050565b60006109a082610829565b9050919050565b6109b081610995565b82525050565b60006060820190506109cb60008301866109a7565b6109d860208301856109a7565b6109e560408301846108cd565b949350505050565b60008115159050919050565b610a02816109ed565b8114610a0d57600080fd5b50565b600081519050610a1f816109f9565b92915050565b600060208284031215610a3b57610a3a6108f7565b5b6000610a4984828501610a10565b91505092915050565b600082825260208201905092915050565b7f5472616e73666572206f6620546f6b656e41206661696c656400000000000000600082015250565b6000610a99601983610a52565b9150610aa482610a63565b602082019050919050565b60006020820190508181036000830152610ac881610a8c565b9050919050565b7f4e487b7100000000000000000000000000000000000000000000000000000000600052601160045260246000fd5b6000610b09826108c3565b9150610b14836108c3565b9250828202610b22816108c3565b91508282048414831517610b3957610b38610acf565b5b5092915050565b7f4e487b7100000000000000000000000000000000000000000000000000000000600052601260045260246000fd5b6000610b7a826108c3565b9150610b85836108c3565b925082610b9557610b94610b40565b5b828204905092915050565b6000604082019050610bb560008301856109a7565b610bc260208301846108cd565b9392505050565b7f5472616e73666572206f6620546f6b656e42206661696c656400000000000000600082015250565b6000610bff601983610a52565b9150610c0a82610bc9565b602082019050919050565b60006020820190508181036000830152610c2e81610bf2565b9050919050565b6000610c40826108c3565b9150610c4b836108c3565b9250828201905080821115610c6357610c62610acf565b5b92915050565b6000610c74826108c3565b9150610c7f836108c3565b9250828203905081811115610c9757610c96610acf565b5b92915050565b7f4e6f7420656e6f756768206c697175696469747920696e20546f6b656e410000600082015250565b6000610cd3601e83610a52565b9150610cde82610c9d565b602082019050919050565b60006020820190508181036000830152610d0281610cc6565b9050919050565b7f4e6f7420656e6f756768206c697175696469747920696e20546f6b656e420000600082015250565b6000610d3f601e83610a52565b9150610d4a82610d09565b602082019050919050565b60006020820190508181036000830152610d6e81610d32565b905091905056fea2646970667358221220e1a9b6ebcbd57529d347ae88ead86f2fb651de7f6bdc558921f5bc0b3cd14c8764736f6c63430008140033",
  "linkReferences": {},
  "deployedLinkReferences": {}
}